:100000000C9484010C94B1010C94B1010C94B101D5
:100010000C94B1010C94B1010C94B1010C94B10198
:100020000C94B1010C94B1010C94B1010C94B10188
:100030000C94B1010C94B1010C94B1010C94B10178
:100040000C94B1010C94B1010C94B1010C94B10168
:100050000C94B1010C94B1010C94B1010C949C046A
:100060000C94B1010C94E9050C9431070C94B10186
:100070000C94B1010C94B1010C94B1010C94B10138
:100080000C94B1010C94B1010C94B1010C94B10128
:100090000C9429060C9470070C94B1010C94B101D6
:1000A0000C94B1010C94B1010C94B1010C94B10108
:1000B0000C94B1010C94B1010C94B1010C94B101F8
:1000C0000C94B1010C94B1010C94B1010C9469062B
:1000D0000C94AF070C94B1010C94A9060C94EE0794
:1000E0000C94B101005EBCE2613FDD83C29C7E20C6
:1000F000A3FD1F419DC3217FFCA2401E5F01E3BD04
:100100003E6082DC237D9FC1421CFEA0E1BF5D03F7
:1001100080DE3C62BEE0025CDF81633D7C22C09EEB
:100120001D43A1FF4618FAA427799BC584DA3866D7
:10013000E5BB5907DB856739BAE406581947A5FBC3
:100140007826C49A653BD987045AB8E6A7F91B45B7
:10015000C6987A24F8A6441A99C7257B3A6486D8AB
:100160005B05E7B98CD2306EEDB3510F4E10F2AC97
:100170002F7193CD114FADF3702ECC92D38D6F3183
:10018000B2EC0E50AFF1134DCE90722C6D33D18F77
:100190000C52B0EE326C8ED0530DEFB1F0AE4C126B
:1001A00091CF2D73CA947628ABF517490856B4EA57
:1001B0006937D58B5709EBB536688AD495CB297743
:1001C000F4AA4816E9B7550B88D6346A2B7597C937
:1001D0004A14F6A8742AC896154BA9F7B6E80A542B
:1001E000D7896B3500002100240027002A002D004C
:1001F0003000330001010000040107010A01000082
:100200002200250028002B002E00310034000201BE
:100210000000050108010B0100002000230026005A
:1002200029002C002F00320000010000030106010C
:10023000090105050505070508080808020202026C
:100240000A0A080804040404010101010101010172
:100250000303030303030303040707070C0C0C0C3D
:100260000C0C0C0C02020202060606060606060626
:100270000B0B0B0B0B0B0B0B0102102020080810B3
:100280002040102040800201020108040201010206
:1002900004081020408080402010080402018004DF
:1002A000020180402010080402010804020101023A
:1002B0000408102040800102040810204080000043
:1002C000090A02080B0C0D070603040100000000D8
:1002D000000000000000000000000000000000001E
:1002E0000000000000000000000011100F000000DE
:1002F00000000000000000000000000000000000FE
:1003000000000000B3015E0911241FBECFEFD1E24F
:10031000DEBFCDBF00E00CBF12E0A0E0B2E0E2E63D
:10032000FEE100E00BBF02C007900D92AE34B107B2
:10033000D9F71BBE15E0AEE4B2E001C01D92AD30AE
:10034000B107E1F713E0C8E0D3E004C02297FE0153
:100350000E942B0FC430D107C9F70E94940A0C9455
:100360002F0F0C9400008EE492E060913C020E94FA
:1003700066040895EF92FF920F931F93DF93CF933C
:10038000CDB7DEB764970FB6F894DEBF0FBECDBF12
:100390008EE492E08E010F5F1F4FB8010E94D003E0
:1003A000882329F48EE492E00E9481020DC0C801E6
:1003B00067E00E948E029885891759F085E894E0DD
:1003C00060E072E00E94B60CE0E070E08AE764EC66
:1003D00057C08981803149F0883239F085E894E04E
:1003E00062E172E00E94BC0BEFCF8EE492E00E94CB
:1003F00085038EE492E08E010F5F1F4FB8010E94CB
:1004000064038EE492E064E441E00E9424038EE4FD
:1004100092E00E9485038EE492E0B8010E9464039A
:100420008EE492E06EEB40E00E9424038E01075FB1
:100430001F4F82E1E82EF12CEC0EFD1E8EE492E0BF
:100440000E94D302F80181938F01EE15FF05B1F7E9
:100450008EE492E00E9481027A8560E0298530E096
:10046000622B732B882777FD8095982F0E94CD0DE6
:1004700020E030E040E85DE30E94810EE62F692F26
:100480002E2F372F482F562FB901CA0164960FB669
:10049000F894DEBF0FBECDBFCF91DF911F910F91BA
:1004A000FF90EF900895CF92DF92EF92FF920F931B
:1004B0001F930E94BA016B017C0105E814E0C8019A
:1004C0006BE272E00E94BC0BC801B701A60122E0FA
:1004D00030E00E94A30C68EE73E080E090E00E94A0
:1004E000E4041F910F91FF90EF90DF90CF9008955B
:1004F00085E894E040E855E260E070E00E942D0855
:100500000895FC0113861586148687E090E0128614
:100510003197009711F00197FACF0895DC0180E040
:100520000BC0E82FF0E08D9190E0E827F927EC511F
:10053000FF4FE49161508E2F662399F70895DF9263
:10054000EF92FF920F931F93FC01E08001811281D3
:10055000F894F80181818E2981838281DE2CD094E8
:100560008D21828383E090E00E943D05F801818126
:100570008D2181838AE090E00E943D05F801008191
:10058000789485E390E00E943D0580E010E0FF2430
:100590000E211F21012B09F081E01F910F91FF9087
:1005A000EF90DF900895EF92FF920F931F93CF93F8
:1005B000DF937C0101E010E0C0E0D0E0C7010E94C1
:1005C0009F028111102B000F2196C830D105B1F781
:1005D000812FDF91CF911F910F91FF90EF900895A0
:1005E0001F93CF93DF93FC011081C181D281912FA2
:1005F000909560FF12C0F8948A8189238A8389814B
:10060000812B89838AE090E00E943D058A81812BBD
:100610008A83789487E390E011C0F8948A818923D3
:100620008A838981812B898381E490E00E943D0542
:100630008A81812B8A83789485E090E00E943D0531
:10064000DF91CF911F910895CF92DF92EF92FF92A9
:100650000F931F93CF93DF938C01E42EFF24F39429
:10066000C0E0D0E0C62EDD2460E08F2D90E08C212C
:100670009D21892B09F061E0C8010E94F002FF0C66
:100680002196C830D10581F7EE20A9F4F894D8015D
:100690001196ED91FC91129791818C918095982300
:1006A00091831196ED91FC91129792818C91809596
:1006B000982392837894DF91CF911F910F91FF90AF
:1006C000EF90DF90CF900895EF92FF920F931F93DA
:1006D000CF93DF938C017B0165E540E00E9424030A
:1006E000C0E0D0E0F701EC0FFD1FC801608140E0E1
:1006F0000E9424032196C830D105A1F7DF91CF9144
:100700001F910F91FF90EF900895DF92EF92FF926B
:100710000F931F93CF93DF93FC010081C181D2819E
:10072000F8948981D02ED0948D21898378941DE707
:10073000E02EFF24115059F182E090E00E943D0527
:10074000888190E08E219F21892BA1F3F8948A81E2
:100750008D218A838981802B8983789480EE91E032
:100760000E943D05F89489818D21898386E490E07B
:100770000E943D05888110E090E0E822F922EF28F0
:1007800009F411E078948AE991E00E943D05812FF7
:10079000DF91CF911F910F91FF90EF90DF9008951F
:1007A000AF92BF92DF92EF92FF920F931F93CF937E
:1007B000DF93EC015B018D85882309F061C0CE01D8
:1007C0000E948503882329F41B861D861C8690E0E1
:1007D0006BC0CE0160EF40E00E94240301E0DD2405
:1007E000EE24FF24F394CE010E949F02182FCE0125
:1007F0000E949F02113019F48130E1F439C01817BA
:1008000009F58B85081770F460E0FE01EE0DF11D0F
:10081000838190E02F2D30E0822393231816190650
:100820004CF003C060E0081729F0093008F04CC014
:100830000C874AC0FE01EE0DF11D83818F29838351
:1008400061E009C0612FFE01EE0DF11D9F2D909515
:10085000838189238383CE010E94F0020F5FFF0C06
:1008600019F4E394FF24F39487E08E1508F0BBCFCE
:10087000013430F0DB86DD2011F581E08D871FC06B
:100880001B861D861C8690E0DE0120E030E0F5012D
:10089000E20FF31F13968C91139780832F5F3F4FC6
:1008A00011962830310599F7892FDF91CF911F914B
:1008B0000F91FF90EF90DF90BF90AF9008958B81E4
:1008C0008823F1F291E0E0CFD02EBDCFFF920F93BD
:1008D0001F938C01F62E862F60E00E94A9058F2DB4
:1008E00090E0FC01E858FD4FE491D801EC938E5C58
:1008F0009D4FFC016491E62FF0E0EE0FFF1FE85ED4
:10090000FD4F8591949112969C938E9311971B960F
:100910001C921B971D961C921D971C961C92F80109
:1009200087E090E012863197009711F00197FACF97
:100930001F910F91FF9008951F920F920FB60F9283
:1009400011242F933F938F939F93AF93BF938091E5
:10095000600290916102A0916202B09163023091B5
:1009600064020196A11DB11D232F2D5F2D3720F0AC
:100970002D570196A11DB11D209364028093600242
:1009800090936102A0936202B093630280915C0233
:1009900090915D02A0915E02B0915F020196A11D4F
:1009A000B11D80935C0290935D02A0935E02B093B0
:1009B0005F02BF91AF919F918F913F912F910F90C7
:1009C0000FBE0F901F9018959B01AC017FB7F89454
:1009D00080915C0290915D02A0915E02B0915F02F5
:1009E00066B5A89B05C06F3F19F00196A11DB11D0A
:1009F0007FBFBA2FA92F982F8827860F911DA11D81
:100A0000B11D62E0880F991FAA1FBB1F6A95D1F71D
:100A1000BC012DC0FFB7F89480915C0290915D02FB
:100A2000A0915E02B0915F02E6B5A89B05C0EF3FC2
:100A300019F00196A11DB11DFFBFBA2FA92F982F44
:100A400088278E0F911DA11DB11DE2E0880F991F0F
:100A5000AA1FBB1FEA95D1F7861B970B885E9340B0
:100A6000C8F2215030404040504068517C4F211521
:100A700031054105510571F60895019739F0880F48
:100A8000991F880F991F02970197F1F7089578949D
:100A900084B5826084BD84B5816084BD85B5826083
:100AA00085BD85B5816085BDEEE6F0E08081816021
:100AB0008083E1E8F0E01082808182608083808121
:100AC00081608083E0E8F0E0808181608083E1EBF9
:100AD000F0E0808184608083E0EBF0E080818160E1
:100AE0008083E1E9F0E080818260808380818160A1
:100AF0008083E0E9F0E0808181608083E1EAF0E0DA
:100B0000808182608083808181608083E0EAF0E080
:100B1000808181608083E1E2F1E080818260808376
:100B2000808181608083E0E2F1E080818160808368
:100B3000EAE7F0E080818460808380818260808346
:100B40008081816080838081806880831092C10071
:100B50000895CF93DF93482F50E0CA0188589D4FE6
:100B6000FC0134914E5C5D4FFA018491882369F158
:100B700090E0880F991FFC01EC51FE4FA591B491B4
:100B8000FC01E250FE4FC591D491662351F42FB77A
:100B9000F8948C91932F909589238C938881892345
:100BA0000BC0623061F42FB7F8948C91932F90951D
:100BB00089238C938881832B88832FBF06C09FB79E
:100BC000F8948C91832B8C939FBFDF91CF910895E4
:100BD00008951F920F920FB60F920BB60F92112429
:100BE0002F933F934F938F939F93EF93FF93809116
:100BF000C00082FD1DC04091C6002091A502309129
:100C0000A6022F5F3F4F2F7330708091A702909103
:100C1000A8022817390771F0E091A502F091A60209
:100C2000EB59FD4F40833093A6022093A50202C0EA
:100C30008091C600FF91EF919F918F914F913F91CD
:100C40002F910F900BBE0F900FBE0F901F90189515
:100C500008951F920F920FB60F920BB60F921124A8
:100C60002F933F934F938F939F93EF93FF93809195
:100C7000C80082FD1DC04091CE0020912D0330910F
:100C80002E032F5F3F4F2F73307080912F03909171
:100C900030032817390771F0E0912D03F0912E03EE
:100CA000E351FD4F408330932E0320932D0302C068
:100CB0008091CE00FF91EF919F918F914F913F9145
:100CC0002F910F900BBE0F900FBE0F901F90189595
:100CD00008951F920F920FB60F920BB60F92112428
:100CE0002F933F934F938F939F93EF93FF93809115
:100CF000D00082FD1DC04091D6002091B5033091F7
:100D0000B6032F5F3F4F2F7330708091B7039091E0
:100D1000B8032817390771F0E091B503F091B603D5
:100D2000EB58FC4F40833093B6032093B50302C0C9
:100D30008091D600FF91EF919F918F914F913F91BC
:100D40002F910F900BBE0F900FBE0F901F90189514
:100D500008951F920F920FB60F920BB60F921124A7
:100D60002F933F934F938F939F93EF93FF93809194
:100D7000300182FD1DC04091360120913D0430912B
:100D80003E042F5F3F4F2F73307080913F0490914E
:100D900040042817390771F0E0913D04F0913E04BA
:100DA000E350FC4F408330933E0420933D0402C047
:100DB00080913601FF91EF919F918F914F913F91DB
:100DC0002F910F900BBE0F900FBE0F901F90189594
:100DD000E0919104F0919204E05CFF4F8191919138
:100DE00020813181821B930B8F739070892B11F0BE
:100DF0000E94E805E091B304F091B404E05CFF4F79
:100E00008191919120813181821B930B8F7390701E
:100E1000892B11F00E942806E091D504F091D604A8
:100E2000E05CFF4F8191919120813181821B930B76
:100E30008F739070892B11F00E946806E091F7047F
:100E4000F091F804E05CFF4F819191912081318114
:100E5000821B930B8F739070892B11F00E94A80650
:100E600008951F920F920FB60F920BB60F92112496
:100E70002F933F938F939F93EF93FF932091E902DA
:100E80003091EA028091EB029091EC022817390729
:100E900031F48091C1008F7D8093C10014C0E09136
:100EA000EB02F091EC02E755FD4F20818091EB02BF
:100EB0009091EC0201968F7390709093EC02809366
:100EC000EB022093C600FF91EF919F918F913F918C
:100ED0002F910F900BBE0F900FBE0F901F90189583
:100EE0001F920F920FB60F920BB60F9211242F93F1
:100EF0003F938F939F93EF93FF93209171033091D2
:100F0000720380917303909174032817390731F4A9
:100F10008091C9008F7D8093C90014C0E091730354
:100F2000F0917403EF5CFC4F2081809173039091EA
:100F3000740301968F73907090937403809373037E
:100F40002093CE00FF91EF919F918F913F912F9130
:100F50000F900BBE0F900FBE0F901F9018951F9211
:100F60000F920FB60F920BB60F9211242F933F934F
:100F70008F939F93EF93FF932091F9033091FA039E
:100F80008091FB039091FC032817390731F480917D
:100F9000D1008F7D8093D10014C0E091FB03F091CC
:100FA000FC03E754FC4F20818091FB039091FC03EC
:100FB00001968F7390709093FC038093FB032093B2
:100FC000D600FF91EF919F918F913F912F910F90BC
:100FD0000BBE0F900FBE0F901F9018951F920F928F
:100FE0000FB60F920BB60F9211242F933F938F934E
:100FF0009F93EF93FF93209181043091820480911D
:101000008304909184042817390731F480913101C9
:101010008F7D8093310114C0E0918304F0918404AA
:10102000EF5BFB4F208180918304909184040196B3
:101030008F7390709093840480938304209336017F
:10104000FF91EF919F918F913F912F910F900BBE48
:101050000F900FBE0F901F901895AF92BF92DF9226
:10106000EF92FF920F931F93CF93DF93EC017A01DE
:101070008B01DD24403081EE580780E0680780E076
:10108000780711F0DD24D39491E0A92EB12CEC89DE
:10109000FD89DD2069F0C50108A002C0880F991FF5
:1010A0000A94E2F7808360E079E08DE390E005C088
:1010B000108260E874E88EE190E0A80197010E9438
:1010C000070F215030404040504056954795379586
:1010D000279580E12030380720F0DD2011F0DD2455
:1010E000D6CFE889F9893083EA89FB89208319A260
:1010F000EE89FF89408121E030E0C9010C8C02C0FB
:10110000880F991F0A94E2F7482B4083EE89FF89E4
:101110004081C9010D8C02C0880F991F0A94E2F723
:10112000482B4083EE89FF894081C9010E8C02C0A3
:10113000880F991F0A94E2F7482B4083EE89FF89B4
:1011400080810F8C02C0220F331F0A94E2F7209592
:1011500028232083DF91CF911F910F91FF90EF9073
:10116000DF90BF90AF900895DC011C96ED91FC914B
:101170001D97E05CFF4F2191319180819181281B67
:10118000390B2F733070C9010895DC011C96ED9165
:10119000FC911D97E05CFF4F20813181E054F040CD
:1011A000DF01AE5BBF4F8D919C91119728173907D6
:1011B00019F42FEF3FEF07C08D919C91E80FF91FB5
:1011C0008081282F30E0C9010895DC011C96ED9143
:1011D000FC911D97E05CFF4F20813181E054F0408D
:1011E000DF01AE5BBF4F8D919C9111972817390796
:1011F00019F42FEF3FEF10C08D919C911197E80FDC
:10120000F91F20818D919C91119701968F73907099
:1012100011969C938E9330E0C9010895DC0191965C
:101220008C919197882339F05496ED91FC915597C4
:10123000808186FFF9CF91961C920895CF93DF931A
:10124000EC01EE85FF85E05CFF4F20813181E054A9
:10125000F0402F5F3F4F2F733070DF01AE5BBF4F09
:101260008D919C91119728173907D1F3E05CFF4FBE
:1012700080819181E054F040E80FF91F6083EE8592
:10128000FF85E05CFF4F31832083EE89FF89208159
:1012900081E090E00F8C02C0880F991F0A94E2F75A
:1012A000282B208381E089A3EC89FD8980818064DB
:1012B000808381E090E0DF91CF9108951F93109299
:1012C00088041092870428EE33E040E050E0209339
:1012D000890430938A0440938B0450938C0462E415
:1012E00072E0709386046093850485E692E09093A3
:1012F00092048093910489EA92E0909394048093FD
:10130000930485EC90E0909396048093950484EC8C
:1013100090E0909398048093970480EC90E09093F1
:101320009A048093990481EC90E090939C048093BC
:101330009B0482EC90E090939E0480939D0486EC45
:1013400090E09093A00480939F0414E01093A10474
:10135000B3E0B093A204A7E0A093A304F5E0F09358
:10136000A404E1E0E093A5041092AA041092A90459
:101370002093AB043093AC044093AD045093AE047F
:101380007093A8046093A7048DEE92E09093B40448
:101390008093B30481E393E09093B6048093B50403
:1013A0008DEC90E09093B8048093B7048CEC90E0BF
:1013B0009093BA048093B90488EC90E09093BC04B5
:1013C0008093BB0489EC90E09093BE048093BD04AD
:1013D0008AEC90E09093C0048093BF048EEC90E080
:1013E0009093C2048093C1041093C304B093C404C7
:1013F000A093C504F093C604E093C7041092CC04F4
:101400001092CB042093CD043093CE044093CF04AC
:101410005093D0047093CA046093C90485E793E0A5
:101420009093D6048093D50489EB93E09093D804ED
:101430008093D70485ED90E09093DA048093D904EB
:1014400084ED90E09093DC048093DB0480ED90E0E9
:101450009093DE048093DD0481ED90E09093E004AE
:101460008093DF0482ED90E09093E2048093E104A6
:1014700086ED90E09093E4048093E3041093E504F8
:10148000B093E604A093E704F093E804E093E90442
:101490001092EE041092ED042093EF043093F004C8
:1014A0004093F1045093F2047093EC046093EB04C6
:1014B0008DEF93E09093F8048093F70481E494E037
:1014C0009093FA048093F90485E391E09093FC04EF
:1014D0008093FB0484E391E09093FE048093FD04E9
:1014E00080E391E0909300058093FF0481E391E015
:1014F000909302058093010582E391E090930405A7
:101500008093030586E391E090930605809305059B
:1015100010930705B0930805A0930905F0930A05F9
:10152000E0930B051F910895CF93DF930E94470529
:101530000E947802C8EED6E00E9453022097E1F3A1
:101540000E94E806F9CFCF92DF92EF92FF920F93BD
:101550001F93CF93DF937C016B018A01C0E0D0E041
:101560000FC0D6016D916D01D701ED91FC910190F5
:10157000F081E02DC7011995C80FD91F0150104007
:101580000115110571F7CE01DF91CF911F910F91D8
:10159000FF90EF90DF90CF900895EF92FF920F931E
:1015A0001F938C01DC01ED91FC910190F081E02D05
:1015B0006DE019957C01D801ED91FC910190F081CD
:1015C000E02DC8016AE019959C012E0D3F1DC9014F
:1015D0001F910F91FF90EF900895CF93DF93EC014F
:1015E0006115710519F420E030E00FC0DB010D90AA
:1015F0000020E9F71197A61BB70BE881F98102805B
:10160000F381E02DAD0119959C01C901DF91CF91C6
:1016100008954F925F927F928F929F92AF92BF9266
:10162000CF92DF92EF92FF920F931F93DF93CF93AE
:10163000CDB7DEB7A1970FB6F894DEBF0FBECDBF12
:101640002C01742ECB01223008F42AE019A231E2D9
:10165000C32ED12CCC0EDD1E822E9924AA24BB24AD
:10166000672D752FA50194010E94070F79018A014A
:10167000C801B701A50194010E94E80E472D461B41
:101680000894C108D1084A3014F4405D01C0495C97
:10169000F6014083E114F1040105110521F07E2CCF
:1016A0005F2DC801DDCFC201B6010E94ED0AA196EF
:1016B0000FB6F894DEBF0FBECDBFCF91DF911F9163
:1016C0000F91FF90EF90DF90CF90BF90AF909F90E1
:1016D0008F907F905F904F900895DC012115310528
:1016E00041F4ED91FC910190F081E02D642F19956A
:1016F00008950E94090B0895CF92DF92EF92FF9216
:101700000F931F93CF93DF93EC016A017B012115A7
:10171000310541F4E881F9810190F081E02D642FD9
:1017200019951FC02A303105D1F477FF17C0E88121
:10173000F9810190F081E02D6DE219958C0144272B
:101740005527BA014C195D096E097F09CE012AE0BF
:101750000E94090B9801280F391F04C02AE00E943B
:10176000090B9C01C901DF91CF911F910F91FF904F
:10177000EF90DF90CF9008950E94ED0A08957F9238
:101780008F929F92AF92BF92CF92DF92EF92FF9291
:101790000F931F93CF93DF934C017A018B01722E2D
:1017A000CB01BA01A80197010E94E40E882321F021
:1017B000C4016EE272E021C0C0E0D0E057016801D0
:1017C000E894D7F8C601B5012FEF3FEF4FE75FE789
:1017D0000E94E40E882351F4C601B5012FEF3FEFBC
:1017E0004FE75FE70E942E0D181614F0C1E0D0E01D
:1017F000219739F0C40162E372E00E94ED0AEC0126
:1018000093C0C801B7012FEF3FEF4FE75FE40E949D
:101810007D0E181654F0C801B7012FEF3FEF4FE7C8
:101820005FEC0E942E0D882324F4C40166E372E06D
:10183000E4CFC801B70120E030E040E050E00E9472
:101840002E0D87FD03C0C0E0D0E00EC0D401ED91A5
:10185000FC910190F081E02DC4016DE21995EC013D
:1018600017FB109517F9109520E030E040E05FE39A
:10187000DD240BC0CA01B90120E030E040E251E4B0
:101880000E94320D9B01AC01D394D71498F3C80188
:10189000B7010E94CA0C5B016C010E949F0D7B0185
:1018A0008C01C401B801A7012AE030E00E946D0B51
:1018B000C80FD91F772039F0C4016AE372E00E9493
:1018C000ED0AC80FD91FC801B7010E94CB0D9B01BB
:1018D000AC01C601B5010E94C90C24C020E030E073
:1018E00040E251E40E94810E7B018C010E949A0D1E
:1018F0005B016C01CC24B7FCC094DC2CC401B601A4
:10190000A5012AE030E00E947C0BC80FD91FC60158
:10191000B5010E94CD0D9B01AC01C801B7010E9429
:10192000C90C7A947720D1F6CE01DF91CF911F9127
:101930000F91FF90EF90DF90CF90BF90AF909F906E
:101940008F907F900895EF92FF920F931F937C01E9
:101950000E94BF0B8C01C7010E94CD0A080F191FFE
:10196000C8011F910F91FF90EF900895EF92FF92A1
:101970000F931F937C010E94ED0A8C01C7010E9406
:10198000CD0A080F191FC8011F910F91FF90EF900A
:1019900008955058BB27AA270ED075C166D130F0E4
:1019A0006BD120F031F49F3F11F41EF45BC10EF4B3
:1019B000E095E7FB51C1E92F77D180F3BA176207B1
:1019C00073078407950718F071F49EF58FC10EF424
:1019D000E0950B2EBA2FA02D0B01B90190010C013F
:1019E000CA01A0011124FF27591B99F0593F50F457
:1019F000503E68F11A16F040A22F232F342F4427AF
:101A0000585FF3CF469537952795A795F0405395A6
:101A1000C9F77EF41F16BA0B620B730B840BBAF076
:101A20009150A1F0FF0FBB1F661F771F881FC2F7E1
:101A30000EC0BA0F621F731F841F48F487957795F5
:101A40006795B795F7959E3F08F0B3CF9395880FAC
:101A500008F09927EE0F979587950895D9D008F447
:101A600081E008950CD00FC107D140F0FED030F0D6
:101A700021F45F3F19F0F0C0511139C1F3C014D106
:101A800098F39923C9F35523B1F3951B550BBB2745
:101A9000AA2762177307840738F09F5F5F4F220FF2
:101AA000331F441FAA1FA9F333D00E2E3AF0E0E8EB
:101AB00030D091505040E695001CCAF729D0FE2F37
:101AC00027D0660F771F881FBB1F261737074807C9
:101AD000AB07B0E809F0BB0B802DBF01FF2793587F
:101AE0005F4F2AF09E3F510568F0B6C000C15F3FCE
:101AF000ECF3983EDCF3869577956795B795F79567
:101B00009F5FC9F7880F911D9695879597F908955E
:101B1000E1E0660F771F881FBB1F621773078407FA
:101B2000BA0720F0621B730B840BBA0BEE1F88F709
:101B3000E095089504D06894B111D9C00895BCD03F
:101B400088F09F5790F0B92F9927B751A0F0D1F0A6
:101B5000660F771F881F991F1AF0BA95C9F712C030
:101B6000B13081F0C3D0B1E00895C0C0672F782FA5
:101B70008827B85F39F0B93FCCF38695779567959C
:101B8000B395D9F73EF490958095709561957F4F08
:101B90008F4F9F4F0895E89409C097FB3EF49095AE
:101BA0008095709561957F4F8F4F9F4F9923A9F036
:101BB000F92F96E9BB279395F695879577956795C5
:101BC000B795F111F8CFFAF4BB0F11F460FF1BC009
:101BD0006F5F7F4F8F4F9F4F16C0882311F096E99C
:101BE00011C0772321F09EE8872F762F05C066234A
:101BF00071F096E8862F70E060E02AF09A95660F03
:101C0000771F881FDAF7880F9695879597F90895BB
:101C1000990F0008550FAA0BE0E8FEEF16161706FD
:101C2000E807F907C0F012161306E407F50798F065
:101C3000621B730B840B950B39F40A2661F0232B7E
:101C4000242B252B21F408950A2609F4A140A695FA
:101C50008FEF811D811D089597F99F6780E870E0DF
:101C600060E008959FEF80EC089500240A94161612
:101C7000170618060906089500240A94121613067A
:101C8000140605060895092E0394000C11F4882308
:101C900052F0BB0F40F4BF2B11F460FF04C06F5F24
:101CA0007F4F8F4F9F4F089557FD9058440F551FFA
:101CB00059F05F3F71F04795880F97FB991F61F0CE
:101CC0009F3F79F087950895121613061406551F45
:101CD000F2CF4695F1DF08C0161617061806991FB1
:101CE000F1CF86957105610508940895E894BB27A6
:101CF00066277727CB0197F908958ADF08F48FEFDD
:101D000008950BD0C0CFB1DF28F0B6DF18F09523CF
:101D100009F0A2CFA7CF1124EACFC6DFA0F3959F89
:101D2000D1F3950F50E0551F629FF001729FBB27C2
:101D3000F00DB11D639FAA27F00DB11DAA1F649F6E
:101D40006627B00DA11D661F829F2227B00DA11D21
:101D5000621F739FB00DA11D621F839FA00D611DA7
:101D6000221F749F3327A00D611D231F849F600DC8
:101D7000211D822F762F6A2F11249F5750408AF001
:101D8000E1F088234AF0EE0FFF1FBB1F661F771F8D
:101D9000881F91505040A9F79E3F510570F05CCFCD
:101DA000A6CF5F3FECF3983EDCF386957795679579
:101DB000B795F795E7959F5FC1F7FE2B880F911DAB
:101DC0009695879597F9089523DF880B990B0895C9
:101DD000629FD001739FF001829FE00DF11D649F0F
:101DE000E00DF11D929FF00D839FF00D749FF00D9B
:101DF000659FF00D9927729FB00DE11DF91F639F3C
:101E0000B00DE11DF91FBD01CF0111240895A1E21C
:101E10001A2EAA1BBB1BFD010DC0AA1FBB1FEE1F64
:101E2000FF1FA217B307E407F50720F0A21BB30BAF
:101E3000E40BF50B661F771F881F991F1A9469F72B
:101E400060957095809590959B01AC01BD01CF0187
:101E50000895EE0FFF1F0590F491E02D1994F8946A
:021E6000FFCFB2
:101E6200435243206973206E6F742076616C6964FB
:101E72002100446576696365206973206E6F742062
:101E82007265636F676E697A656400543A006E61C9
:101E92006E00696E66006F7666002E001C00000000
:0E1EA20000001E09A30AB408E508C5080E09D1
:00000001FF
