:100000000C9403010C9430010C9430010C943001D9
:100010000C9430010C9430010C9430010C9430019C
:100020000C9430010C9430010C9430010C9430018C
:100030000C9430010C9430010C9430010C9430017C
:100040000C9430010C9430010C9430010C9430016C
:100050000C9430010C9430010C9430010C946F011D
:100060000C9430010C9489030C94D1040C9430014D
:100070000C9430010C9430010C9430010C9430013C
:100080000C9430010C9430010C9430010C9430012C
:100090000C94C9030C9410050C9430010C9430019D
:1000A0000C9430010C9430010C9430010C9430010C
:1000B0000C9430010C9430010C9430010C943001FC
:1000C0000C9430010C9430010C9430010C94090410
:1000D0000C944F050C9430010C9449040C948E053B
:1000E0000C94300100002100240027002A002D007C
:1000F0003000330001010000040107010A01000083
:100100002200250028002B002E00310034000201BF
:100110000000050108010B0100002000230026005B
:1001200029002C002F00320000010000030106010D
:10013000090105050505070508080808020202026D
:100140000A0A080804040404010101010101010173
:100150000303030303030303040707070C0C0C0C3E
:100160000C0C0C0C02020202060606060606060627
:100170000B0B0B0B0B0B0B0B0102102020080810B4
:100180002040102040800201020108040201010207
:1001900004081020408080402010080402018004E0
:1001A000020180402010080402010804020101023B
:1001B0000408102040800102040810204080000044
:1001C000090A02080B0C0D070603040100000000D9
:1001D000000000000000000000000000000000001F
:1001E0000000000000000000000011100F000000DF
:1001F00000000000000000000000000000000000FF
:1002000000000000FE0611241FBECFEFD1E2DEBFCA
:10021000CDBF00E00CBF12E0A0E0B2E0E2E1F3E10C
:1002200000E00BBF02C007900D92A631B107D9F7CD
:100230001BBE14E0A6E1B2E001C01D92A73CB107CD
:10024000E1F712E0C6E0D2E004C02297FE010E946E
:100250008309C430D107C9F70E9434080C94870978
:100260000C940000CF93DF93809101020E94580309
:10027000EC018FE394E0BE014AE050E00E942D09BA
:1002800065E070E080E090E00E94B701809100029C
:10029000882351F08091030261E00E942503CD2B59
:1002A00041F01092000205C08091030260E00E94BC
:1002B0002503DF91CF9108958FE394E040E855E264
:1002C00060E070E00E94CD058091010260E00E9434
:1002D00072028091030261E00E94720208951F92EF
:1002E0000F920FB60F9211242F933F938F939F93EA
:1002F000AF93BF9380911A0290911B02A0911C02B0
:10030000B0911D0230911E020196A11DB11D232F37
:100310002D5F2D3720F02D570196A11DB11D209383
:100320001E0280931A0290931B02A0931C02B093AA
:100330001D028091160290911702A0911802B091AF
:1003400019020196A11DB11D809316029093170208
:10035000A0931802B0931902BF91AF919F918F9112
:100360003F912F910F900FBE0F901F9018959B01FA
:10037000AC017FB7F8948091160290911702A0917A
:100380001802B091190266B5A89B05C06F3F19F01D
:100390000196A11DB11D7FBFBA2FA92F982F8827C5
:1003A000860F911DA11DB11D62E0880F991FAA1F24
:1003B000BB1F6A95D1F7BC012DC0FFB7F89480919F
:1003C000160290911702A0911802B0911902E6B599
:1003D000A89B05C0EF3F19F00196A11DB11DFFBFFD
:1003E000BA2FA92F982F88278E0F911DA11DB11DFF
:1003F000E2E0880F991FAA1FBB1FEA95D1F7861B61
:10040000970B885E9340C8F22150304040405040E6
:1004100068517C4F211531054105510571F608954C
:10042000789484B5826084BD84B5816084BD85B5CF
:10043000826085BD85B5816085BDEEE6F0E0808196
:1004400081608083E1E8F0E01082808182608083B7
:10045000808181608083E0E8F0E08081816080833A
:10046000E1EBF0E0808184608083E0EBF0E080816C
:1004700081608083E1E9F0E0808182608083808117
:1004800081608083E0E9F0E0808181608083E1EA3F
:10049000F0E0808182608083808181608083E0EAF7
:1004A000F0E0808181608083E1E2F1E08081826020
:1004B0008083808181608083E0E2F1E080818160DF
:1004C0008083EAE7F0E080818460808380818260BD
:1004D00080838081816080838081806880831092A6
:1004E000C1000895CF93DF93482F50E0CA01885888
:1004F0009E4FFC0134914E5C5E4FFA01849188233B
:1005000069F190E0880F991FFC01EC51FF4FA59114
:10051000B491FC01E250FF4FC591D491662351F490
:100520002FB7F8948C91932F909589238C93888181
:1005300089230BC0623061F42FB7F8948C91932F0C
:10054000909589238C938881832B88832FBF06C045
:100550009FB7F8948C91832B8C939FBFDF91CF91A1
:100560000895893009F449C08A30A0F4843051F1EB
:10057000853040F4823079F1833000F5813009F024
:1005800063C026C0873079F1883098F5863009F04D
:100590005BC025C08D3009F442C08E3028F48B300A
:1005A000B1F18C30C0F52DC0803109F442C08131E9
:1005B00009F445C08F3009F047C037C080918000F2
:1005C0008F7703C0809180008F7D80938000089595
:1005D00084B58F7702C084B58F7D84BD08958091E6
:1005E000B0008F7703C08091B0008F7D8093B00002
:1005F0000895809190008F7707C0809190008F7D43
:1006000003C080919000877F80939000089580912F
:10061000A0008F7707C08091A0008F7D03C08091DC
:10062000A000877F8093A0000895809120018F779C
:1006300003C0809120018F7D8093200108958091D7
:100640002001877F809320010895FF920F931F93CD
:10065000F62E482F50E0CA0182549E4FFC0124918F
:10066000CA0188589E4FFC0114914E5C5E4FFA01FE
:1006700004910023C9F0222319F0822F0E94B102B5
:10068000E02FF0E0EE0FFF1FE250FF4FA591B49175
:100690009FB7F894FF2021F48C911095812302C01C
:1006A0008C91812B8C939FBF1F910F91FF90089588
:1006B0000F931F93482F50E0CA0182549E4FFC01B4
:1006C0002491CA0188589E4FFC0104914E5C5E4FF4
:1006D000FA011491112319F420E030E015C022230F
:1006E00019F0822F0E94B102812F90E0880F991F8C
:1006F000885E9E4FFC01A591B4918C9120E030E082
:10070000802311F021E030E0C9011F910F9108957D
:1007100008951F920F920FB60F920BB60F921124ED
:100720002F933F934F938F939F93EF93FF938091DA
:10073000C00082FD1DC04091C60020915F02309133
:1007400060022F5F3F4F2F73307080916102909154
:1007500062022817390771F0E0915F02F0916002A0
:10076000E15EFD4F40833093600220935F0202C040
:100770008091C600FF91EF919F918F914F913F9192
:100780002F910F900BBE0F900FBE0F901F901895DA
:1007900008951F920F920FB60F920BB60F9211246D
:1007A0002F933F934F938F939F93EF93FF9380915A
:1007B000C80082FD1DC04091CE002091E70230911B
:1007C000E8022F5F3F4F2F7330708091E9029091C4
:1007D000EA022817390771F0E091E702F091E80288
:1007E000E955FD4F40833093E8022093E70202C0B1
:1007F0008091CE00FF91EF919F918F914F913F910A
:100800002F910F900BBE0F900FBE0F901F90189559
:1008100008951F920F920FB60F920BB60F921124EC
:100820002F933F934F938F939F93EF93FF938091D9
:10083000D00082FD1DC04091D60020916F03309101
:1008400070032F5F3F4F2F73307080917103909131
:1008500072032817390771F0E0916F03F09170036C
:10086000E15DFC4F40833093700320936F0302C01F
:100870008091D600FF91EF919F918F914F913F9181
:100880002F910F900BBE0F900FBE0F901F901895D9
:1008900008951F920F920FB60F920BB60F9211246C
:1008A0002F933F934F938F939F93EF93FF93809159
:1008B000300182FD1DC0409136012091F703309137
:1008C000F8032F5F3F4F2F7330708091F9039091A1
:1008D000FA032817390771F0E091F703F091F80354
:1008E000E954FC4F40833093F8032093F70302C090
:1008F00080913601FF91EF919F918F914F913F91A0
:100900002F910F900BBE0F900FBE0F901F90189558
:10091000E0914B04F0914C04E05CFF4F8191919188
:1009200020813181821B930B8F739070892B11F082
:100930000E948803E0916D04F0916E04E05CFF4F2B
:100940008191919120813181821B930B8F739070E3
:10095000892B11F00E94C803E0918F04F09190045C
:10096000E05CFF4F8191919120813181821B930B3B
:100970008F739070892B11F00E940804E091B104EC
:10098000F091B204E05CFF4F81919191208131811F
:10099000821B930B8F739070892B11F00E94480477
:1009A00008951F920F920FB60F920BB60F9211245B
:1009B0002F933F938F939F93EF93FF932091A302E5
:1009C0003091A4028091A5029091A60228173907C0
:1009D00031F48091C1008F7D8093C10014C0E091FB
:1009E000A502F091A602ED59FD4F20818091A5024C
:1009F0009091A60201968F7390709093A6028093B7
:100A0000A5022093C600FF91EF919F918F913F9196
:100A10002F910F900BBE0F900FBE0F901F90189547
:100A20001F920F920FB60F920BB60F9211242F93B5
:100A30003F938F939F93EF93FF9320912B033091DC
:100A40002C0380912D0390912E032817390731F440
:100A50008091C9008F7D8093C90014C0E0912D035F
:100A6000F0912E03E551FD4F208180912D0390914F
:100A70002E0301968F73907090932E0380932D0315
:100A80002093CE00FF91EF919F918F913F912F91F5
:100A90000F900BBE0F900FBE0F901F9018951F92D6
:100AA0000F920FB60F920BB60F9211242F933F9314
:100AB0008F939F93EF93FF932091B3033091B403EF
:100AC0008091B5039091B6032817390731F48091CE
:100AD000D1008F7D8093D10014C0E091B503F091D7
:100AE000B603ED58FC4F20818091B5039091B60379
:100AF00001968F7390709093B6038093B503209303
:100B0000D600FF91EF919F918F913F912F910F9080
:100B10000BBE0F900FBE0F901F9018951F920F9253
:100B20000FB60F920BB60F9211242F933F938F9312
:100B30009F93EF93FF9320913B0430913C0480916D
:100B40003D0490913E042817390731F4809131011A
:100B50008F7D8093310114C0E0913D04F0913E04FB
:100B6000E550FC4F208180913D0490913E04019618
:100B70008F73907090933E0480933D0420933601D0
:100B8000FF91EF919F918F913F912F910F900BBE0D
:100B90000F900FBE0F901F901895AF92BF92DF92EB
:100BA000EF92FF920F931F93CF93DF93EC017A01A3
:100BB0008B01DD24403081EE580780E0680780E03B
:100BC000780711F0DD24D39491E0A92EB12CEC89A3
:100BD000FD89DD2069F0C50108A002C0880F991FBA
:100BE0000A94E2F7808360E079E08DE390E005C04D
:100BF000108260E874E88EE190E0A80197010E94FD
:100C00005F092150304040405040569547953795F8
:100C1000279580E12030380720F0DD2011F0DD2419
:100C2000D6CFE889F9893083EA89FB89208319A224
:100C3000EE89FF89408121E030E0C9010C8C02C0BF
:100C4000880F991F0A94E2F7482B4083EE89FF89A9
:100C50004081C9010D8C02C0880F991F0A94E2F7E8
:100C6000482B4083EE89FF894081C9010E8C02C068
:100C7000880F991F0A94E2F7482B4083EE89FF8979
:100C800080810F8C02C0220F331F0A94E2F7209557
:100C900028232083DF91CF911F910F91FF90EF9038
:100CA000DF90BF90AF900895DC011C96ED91FC9110
:100CB0001D97E05CFF4F2191319180819181281B2C
:100CC000390B2F733070C9010895DC011C96ED912A
:100CD000FC911D97E05CFF4F20813181E054F04092
:100CE000DF01AE5BBF4F8D919C911197281739079B
:100CF00019F42FEF3FEF07C08D919C91E80FF91F7A
:100D00008081282F30E0C9010895DC011C96ED9107
:100D1000FC911D97E05CFF4F20813181E054F04051
:100D2000DF01AE5BBF4F8D919C911197281739075A
:100D300019F42FEF3FEF10C08D919C911197E80FA0
:100D4000F91F20818D919C91119701968F7390705E
:100D500011969C938E9330E0C9010895DC01919621
:100D60008C919197882339F05496ED91FC91559789
:100D7000808186FFF9CF91961C920895CF93DF93DF
:100D8000EC01EE85FF85E05CFF4F20813181E0546E
:100D9000F0402F5F3F4F2F733070DF01AE5BBF4FCE
:100DA0008D919C91119728173907D1F3E05CFF4F83
:100DB00080819181E054F040E80FF91F6083EE8557
:100DC000FF85E05CFF4F31832083EE89FF8920811E
:100DD00081E090E00F8C02C0880F991F0A94E2F71F
:100DE000282B208381E089A3EC89FD8980818064A0
:100DF000808381E090E0DF91CF9108951F9310925E
:100E000042041092410428EE33E040E050E0209389
:100E1000430430934404409345045093460469E0EE
:100E200072E07093400460933F048FE192E09093EE
:100E30004C0480934B0483E692E090934E0480939D
:100E40004D0485EC90E09093500480934F0484EC23
:100E500090E0909352048093510480EC90E0909342
:100E600054048093530481EC90E090935604809353
:100E7000550482EC90E0909358048093570486ECDC
:100E800090E090935A048093590414E010935B040B
:100E9000B3E0B0935C04A7E0A0935D04F5E0F093A9
:100EA0005E04E1E0E0935F04109264041092630436
:100EB000209365043093660440936704509368045C
:100EC000709362046093610487EA92E090936E04E9
:100ED00080936D048BEE92E09093700480936F0486
:100EE0008DEC90E090937204809371048CEC90E010
:100EF000909374048093730488EC90E0909376044C
:100F00008093750489EC90E0909378048093770443
:100F10008AEC90E090937A04809379048EEC90E0D0
:100F200090937C0480937B0410937D04B0937E04A3
:100F3000A0937F04F0938004E093810410928604D0
:100F40001092850420938704309388044093890489
:100F500050938A0470938404609383048FE293E037
:100F60009093900480938F0483E793E0909392048E
:100F70008093910485ED90E0909394048093930482
:100F800084ED90E0909396048093950480ED90E03A
:100F9000909398048093970481ED90E090939A0445
:100FA0008093990482ED90E090939C0480939B043D
:100FB00086ED90E090939E0480939D0410939F048F
:100FC000B093A004A093A104F093A204E093A3041F
:100FD0001092A8041092A7042093A9043093AA04A5
:100FE0004093AB045093AC047093A6046093A504A3
:100FF00087EB93E09093B2048093B1048BEF93E07E
:101000009093B4048093B30485E391E09093B60485
:101010008093B50484E391E09093B8048093B7047F
:1010200080E391E09093BA048093B90481E391E066
:101030009093BC048093BB0482E391E09093BE0440
:101040008093BD0486E391E09093C0048093BF0435
:101050001093C104B093C204A093C304F093C404DA
:10106000E093C5041F910895CF93DF930E9410026F
:101070000E945C01C8E8D4E00E9432012097E1F3AD
:101080000E948804F9CFCF92DF92EF92FF920F93E4
:101090001F93CF93DF937C016B018A01C0E0D0E006
:1010A0000FC0D6016D916D01D701ED91FC910190BA
:1010B000F081E02DC7011995C80FD91F01501040CC
:1010C0000115110571F7CE01DF91CF911F910F919D
:1010D000FF90EF90DF90CF900895CF93DF93EC01D6
:1010E0006115710519F420E030E00FC0DB010D90AF
:1010F0000020E9F71197A61BB70BE881F981028060
:10110000F381E02DAD0119959C01C901DF91CF91CB
:1011100008954F925F927F928F929F92AF92BF926B
:10112000CF92DF92EF92FF920F931F93DF93CF93B3
:10113000CDB7DEB7A1970FB6F894DEBF0FBECDBF17
:101140002C01742ECB01223008F42AE019A231E2DE
:10115000C32ED12CCC0EDD1E822E9924AA24BB24B2
:10116000672D752FA50194010E945F0979018A01FD
:10117000C801B701A50194010E944009472D461BF3
:101180000894C108D1084A3014F4405D01C0495C9C
:10119000F6014083E114F1040105110521F07E2CD4
:1011A0005F2DC801DDCFC201B6010E946D08A19676
:1011B0000FB6F894DEBF0FBECDBFCF91DF911F9168
:1011C0000F91FF90EF90DF90CF90BF90AF909F90E6
:1011D0008F907F905F904F900895CF92DF92EF9223
:1011E000FF920F931F93CF93DF93EC016A017B0172
:1011F0002115310541F4E881F9810190F081E02D5C
:10120000642F19951FC02A303105D1F477FF17C01C
:10121000E881F9810190F081E02D6DE219958C0152
:1012200044275527BA014C195D096E097F09CE0183
:101230002AE00E9489089801280F391F04C02AE07B
:101240000E9489089C01C901DF91CF911F910F91E4
:10125000FF90EF90DF90CF900895EF92FF920F9361
:101260001F937B019A010027F7FC0095102FB8010E
:10127000A7010E94ED081F910F91FF90EF90089534
:10128000629FD001739FF001829FE00DF11D649F6A
:10129000E00DF11D929FF00D839FF00D749FF00DF6
:1012A000659FF00D9927729FB00DE11DF91F639F97
:1012B000B00DE11DF91FBD01CF0111240895A1E278
:1012C0001A2EAA1BBB1BFD010DC0AA1FBB1FEE1FC0
:1012D000FF1FA217B307E407F50720F0A21BB30B0B
:1012E000E40BF50B661F771F881F991F1A9469F787
:1012F00060957095809590959B01AC01BD01CF01E3
:101300000895EE0FFF1F0590F491E02D1994F894C5
:02131000FFCF0D
:10131200011600170000000000BE064308540685AF
:06132200066506AE0600A0
:00000001FF
